{
  "contractName": "Migrations",
  "abi": [
    {
      "inputs": [],
      "name": "last_completed_migration",
      "outputs": [
        {
          "internalType": "uint256",
          "name": "",
          "type": "uint256"
        }
      ],
      "stateMutability": "view",
      "type": "function",
      "constant": true
    },
    {
      "inputs": [
        {
          "internalType": "uint256",
          "name": "completed",
          "type": "uint256"
        }
      ],
      "name": "setCompleted",
      "outputs": [],
      "stateMutability": "nonpayable",
      "type": "function"
    },
    {
      "inputs": [
        {
          "internalType": "address",
          "name": "new_address",
          "type": "address"
        }
      ],
      "name": "upgrade",
      "outputs": [],
      "stateMutability": "nonpayable",
      "type": "function"
    }
  ],
  "bytecode": "0x608060405234801561001057600080fd5b50610192806100206000396000f3fe608060405234801561001057600080fd5b50600436106100415760003560e01c80630900f01014610046578063445df0ac1461008a578063fdacd576146100a8575b600080fd5b6100886004803603602081101561005c57600080fd5b81019080803573ffffffffffffffffffffffffffffffffffffffff1690602001909291905050506100d6565b005b61009261014c565b6040518082815260200191505060405180910390f35b6100d4600480360360208110156100be57600080fd5b8101908080359060200190929190505050610152565b005b60008190508073ffffffffffffffffffffffffffffffffffffffff1663fdacd5766000546040518263ffffffff1660e01b815260040180828152602001915050600060405180830381600087803b15801561013057600080fd5b505af1158015610144573d6000803e3d6000fd5b505050505050565b60005481565b806000819055505056fea26469706673582212200393beba5ff89cf889136cf3b1907e6c395aaf646be45166ed7890d6b5cba8d664736f6c63430006000033",
  "source": "pragma solidity >=0.5.0 <0.7.0;\n\ncontract Migrations {\n  //address public owner;\n  uint public last_completed_migration;\n\n  /*modifier restricted() {\n    if (msg.sender == owner) _;\n  }\n\n  constructor() public {\n    owner = msg.sender;\n  } */\n\n  function setCompleted(uint completed) public {\n    last_completed_migration = completed;\n  }\n\n  function upgrade(address new_address) public {\n    Migrations upgraded = Migrations(new_address);\n    upgraded.setCompleted(last_completed_migration);\n  }\n}\n",
  "sourcePath": "/Users/yueyuyer/Bootcamp/FinalProject/contracts/Migrations.sol",
  "compiler": {
    "name": "solc",
    "version": "0.6.0+commit.26b70077.Emscripten.clang"
  },
  "schemaVersion": "3.3.2",
  "updatedAt": "2020-12-20T04:53:42.850Z",
  "networkType": "ethereum",
  "devdoc": {
    "methods": {}
  },
  "userdoc": {
    "methods": {}
  }
}