{
  "contractName": "SimpleBet",
  "abi": [
    {
      "anonymous": false,
      "inputs": [
        {
          "indexed": true,
          "internalType": "address",
          "name": "sender",
          "type": "address"
        }
      ],
      "name": "LogCloseBet",
      "type": "event"
    },
    {
      "anonymous": false,
      "inputs": [
        {
          "indexed": true,
          "internalType": "address",
          "name": "sender",
          "type": "address"
        },
        {
          "indexed": false,
          "internalType": "uint256",
          "name": "strikePrice",
          "type": "uint256"
        }
      ],
      "name": "LogCreateBet",
      "type": "event"
    },
    {
      "anonymous": false,
      "inputs": [],
      "name": "LogPauseBet",
      "type": "event"
    },
    {
      "anonymous": false,
      "inputs": [
        {
          "indexed": true,
          "internalType": "address",
          "name": "sender",
          "type": "address"
        }
      ],
      "name": "LogResetBet",
      "type": "event"
    },
    {
      "anonymous": false,
      "inputs": [
        {
          "indexed": true,
          "internalType": "address",
          "name": "sender",
          "type": "address"
        },
        {
          "indexed": false,
          "internalType": "uint256",
          "name": "strikePrice",
          "type": "uint256"
        },
        {
          "indexed": false,
          "internalType": "uint256",
          "name": "finalPrice",
          "type": "uint256"
        },
        {
          "indexed": false,
          "internalType": "enum SimpleBet.BetChoice",
          "name": "outcome",
          "type": "uint8"
        }
      ],
      "name": "LogResolveBet",
      "type": "event"
    },
    {
      "anonymous": false,
      "inputs": [],
      "name": "LogResumeBet",
      "type": "event"
    },
    {
      "anonymous": false,
      "inputs": [
        {
          "indexed": true,
          "internalType": "address",
          "name": "sender",
          "type": "address"
        },
        {
          "indexed": false,
          "internalType": "uint256",
          "name": "totalPot",
          "type": "uint256"
        },
        {
          "indexed": false,
          "internalType": "uint256",
          "name": "winnerCount",
          "type": "uint256"
        }
      ],
      "name": "LogSetBetPayout",
      "type": "event"
    },
    {
      "anonymous": false,
      "inputs": [
        {
          "indexed": true,
          "internalType": "address",
          "name": "sender",
          "type": "address"
        },
        {
          "indexed": false,
          "internalType": "uint256",
          "name": "amount",
          "type": "uint256"
        }
      ],
      "name": "LogUserDeposit",
      "type": "event"
    },
    {
      "anonymous": false,
      "inputs": [
        {
          "indexed": true,
          "internalType": "address",
          "name": "sender",
          "type": "address"
        },
        {
          "indexed": false,
          "internalType": "enum SimpleBet.BetChoice",
          "name": "choice",
          "type": "uint8"
        }
      ],
      "name": "LogUserTakeBet",
      "type": "event"
    },
    {
      "anonymous": false,
      "inputs": [
        {
          "indexed": true,
          "internalType": "address",
          "name": "sender",
          "type": "address"
        },
        {
          "indexed": false,
          "internalType": "uint256",
          "name": "walletAmount",
          "type": "uint256"
        }
      ],
      "name": "LogUserWithdraw",
      "type": "event"
    },
    {
      "anonymous": false,
      "inputs": [
        {
          "indexed": true,
          "internalType": "address",
          "name": "previousOwner",
          "type": "address"
        },
        {
          "indexed": true,
          "internalType": "address",
          "name": "newOwner",
          "type": "address"
        }
      ],
      "name": "OwnershipTransferred",
      "type": "event"
    },
    {
      "anonymous": false,
      "inputs": [
        {
          "indexed": false,
          "internalType": "address",
          "name": "",
          "type": "address"
        },
        {
          "indexed": false,
          "internalType": "uint256",
          "name": "",
          "type": "uint256"
        }
      ],
      "name": "Received",
      "type": "event"
    },
    {
      "stateMutability": "payable",
      "type": "fallback",
      "payable": true
    },
    {
      "inputs": [],
      "name": "isPaused",
      "outputs": [
        {
          "internalType": "bool",
          "name": "",
          "type": "bool"
        }
      ],
      "stateMutability": "view",
      "type": "function",
      "constant": true
    },
    {
      "inputs": [],
      "name": "numAccounts",
      "outputs": [
        {
          "internalType": "uint256",
          "name": "",
          "type": "uint256"
        }
      ],
      "stateMutability": "view",
      "type": "function",
      "constant": true
    },
    {
      "inputs": [],
      "name": "owner",
      "outputs": [
        {
          "internalType": "address",
          "name": "",
          "type": "address"
        }
      ],
      "stateMutability": "view",
      "type": "function",
      "constant": true
    },
    {
      "inputs": [],
      "name": "renounceOwnership",
      "outputs": [],
      "stateMutability": "nonpayable",
      "type": "function"
    },
    {
      "inputs": [
        {
          "internalType": "address",
          "name": "newOwner",
          "type": "address"
        }
      ],
      "name": "transferOwnership",
      "outputs": [],
      "stateMutability": "nonpayable",
      "type": "function"
    },
    {
      "inputs": [
        {
          "internalType": "uint256",
          "name": "",
          "type": "uint256"
        }
      ],
      "name": "userAccounts",
      "outputs": [
        {
          "internalType": "address",
          "name": "",
          "type": "address"
        }
      ],
      "stateMutability": "view",
      "type": "function",
      "constant": true
    },
    {
      "inputs": [
        {
          "internalType": "address",
          "name": "",
          "type": "address"
        }
      ],
      "name": "users",
      "outputs": [
        {
          "internalType": "uint256",
          "name": "balance",
          "type": "uint256"
        },
        {
          "internalType": "uint256",
          "name": "betAmount",
          "type": "uint256"
        },
        {
          "internalType": "bool",
          "name": "hasBetted",
          "type": "bool"
        },
        {
          "internalType": "enum SimpleBet.BetChoice",
          "name": "chosenBet",
          "type": "uint8"
        },
        {
          "internalType": "bool",
          "name": "hasWon",
          "type": "bool"
        }
      ],
      "stateMutability": "view",
      "type": "function",
      "constant": true
    },
    {
      "stateMutability": "payable",
      "type": "receive",
      "payable": true
    },
    {
      "inputs": [
        {
          "internalType": "address",
          "name": "msgSender",
          "type": "address"
        }
      ],
      "name": "isOwner",
      "outputs": [
        {
          "internalType": "bool",
          "name": "",
          "type": "bool"
        }
      ],
      "stateMutability": "view",
      "type": "function",
      "constant": true
    },
    {
      "inputs": [],
      "name": "kill",
      "outputs": [],
      "stateMutability": "nonpayable",
      "type": "function"
    },
    {
      "inputs": [],
      "name": "getCurrPrice",
      "outputs": [
        {
          "internalType": "uint256",
          "name": "",
          "type": "uint256"
        }
      ],
      "stateMutability": "nonpayable",
      "type": "function"
    },
    {
      "inputs": [],
      "name": "getFinalPrice",
      "outputs": [
        {
          "internalType": "uint256",
          "name": "",
          "type": "uint256"
        }
      ],
      "stateMutability": "nonpayable",
      "type": "function"
    },
    {
      "inputs": [],
      "name": "getUserAccounts",
      "outputs": [
        {
          "internalType": "address[5]",
          "name": "",
          "type": "address[5]"
        }
      ],
      "stateMutability": "view",
      "type": "function",
      "constant": true
    },
    {
      "inputs": [
        {
          "internalType": "uint256",
          "name": "ind",
          "type": "uint256"
        }
      ],
      "name": "getThisAccount",
      "outputs": [
        {
          "internalType": "address",
          "name": "",
          "type": "address"
        }
      ],
      "stateMutability": "view",
      "type": "function",
      "constant": true
    },
    {
      "inputs": [],
      "name": "getNumAccounts",
      "outputs": [
        {
          "internalType": "uint256",
          "name": "",
          "type": "uint256"
        }
      ],
      "stateMutability": "view",
      "type": "function",
      "constant": true
    },
    {
      "inputs": [],
      "name": "getIsPaused",
      "outputs": [
        {
          "internalType": "bool",
          "name": "",
          "type": "bool"
        }
      ],
      "stateMutability": "view",
      "type": "function",
      "constant": true
    },
    {
      "inputs": [
        {
          "internalType": "address",
          "name": "msgSender",
          "type": "address"
        }
      ],
      "name": "getBalance",
      "outputs": [
        {
          "internalType": "uint256",
          "name": "",
          "type": "uint256"
        }
      ],
      "stateMutability": "view",
      "type": "function",
      "constant": true
    },
    {
      "inputs": [
        {
          "internalType": "address",
          "name": "msgSender",
          "type": "address"
        }
      ],
      "name": "getBetAmount",
      "outputs": [
        {
          "internalType": "uint256",
          "name": "",
          "type": "uint256"
        }
      ],
      "stateMutability": "view",
      "type": "function",
      "constant": true
    },
    {
      "inputs": [
        {
          "internalType": "address",
          "name": "msgSender",
          "type": "address"
        }
      ],
      "name": "getBetStatus",
      "outputs": [
        {
          "internalType": "bool",
          "name": "",
          "type": "bool"
        }
      ],
      "stateMutability": "view",
      "type": "function",
      "constant": true
    },
    {
      "inputs": [
        {
          "internalType": "address",
          "name": "msgSender",
          "type": "address"
        }
      ],
      "name": "getChosenBet",
      "outputs": [
        {
          "internalType": "enum SimpleBet.BetChoice",
          "name": "",
          "type": "uint8"
        }
      ],
      "stateMutability": "view",
      "type": "function",
      "constant": true
    },
    {
      "inputs": [
        {
          "internalType": "address",
          "name": "msgSender",
          "type": "address"
        }
      ],
      "name": "getWinningStatus",
      "outputs": [
        {
          "internalType": "bool",
          "name": "",
          "type": "bool"
        }
      ],
      "stateMutability": "view",
      "type": "function",
      "constant": true
    },
    {
      "inputs": [],
      "name": "getStrikePrice",
      "outputs": [
        {
          "internalType": "uint256",
          "name": "",
          "type": "uint256"
        }
      ],
      "stateMutability": "view",
      "type": "function",
      "constant": true
    },
    {
      "inputs": [],
      "name": "getCreateTime",
      "outputs": [
        {
          "internalType": "uint256",
          "name": "",
          "type": "uint256"
        }
      ],
      "stateMutability": "view",
      "type": "function",
      "constant": true
    },
    {
      "inputs": [],
      "name": "getEndTime",
      "outputs": [
        {
          "internalType": "uint256",
          "name": "",
          "type": "uint256"
        }
      ],
      "stateMutability": "view",
      "type": "function",
      "constant": true
    },
    {
      "inputs": [],
      "name": "getOutcome",
      "outputs": [
        {
          "internalType": "enum SimpleBet.BetChoice",
          "name": "",
          "type": "uint8"
        }
      ],
      "stateMutability": "view",
      "type": "function",
      "constant": true
    },
    {
      "inputs": [],
      "name": "getTotalPot",
      "outputs": [
        {
          "internalType": "uint256",
          "name": "",
          "type": "uint256"
        }
      ],
      "stateMutability": "view",
      "type": "function",
      "constant": true
    },
    {
      "inputs": [],
      "name": "getBetterCount",
      "outputs": [
        {
          "internalType": "uint256",
          "name": "",
          "type": "uint256"
        }
      ],
      "stateMutability": "view",
      "type": "function",
      "constant": true
    },
    {
      "inputs": [],
      "name": "getUpCount",
      "outputs": [
        {
          "internalType": "uint256",
          "name": "",
          "type": "uint256"
        }
      ],
      "stateMutability": "view",
      "type": "function",
      "constant": true
    },
    {
      "inputs": [],
      "name": "getDownnCount",
      "outputs": [
        {
          "internalType": "uint256",
          "name": "",
          "type": "uint256"
        }
      ],
      "stateMutability": "view",
      "type": "function",
      "constant": true
    },
    {
      "inputs": [],
      "name": "getWinnerCount",
      "outputs": [
        {
          "internalType": "uint256",
          "name": "",
          "type": "uint256"
        }
      ],
      "stateMutability": "view",
      "type": "function",
      "constant": true
    },
    {
      "inputs": [],
      "name": "getStatus",
      "outputs": [
        {
          "internalType": "enum SimpleBet.BetStatus",
          "name": "",
          "type": "uint8"
        }
      ],
      "stateMutability": "view",
      "type": "function",
      "constant": true
    },
    {
      "inputs": [],
      "name": "getIsLive",
      "outputs": [
        {
          "internalType": "bool",
          "name": "",
          "type": "bool"
        }
      ],
      "stateMutability": "view",
      "type": "function",
      "constant": true
    },
    {
      "inputs": [],
      "name": "pauseBet",
      "outputs": [],
      "stateMutability": "nonpayable",
      "type": "function"
    },
    {
      "inputs": [],
      "name": "resumeBet",
      "outputs": [],
      "stateMutability": "nonpayable",
      "type": "function"
    },
    {
      "inputs": [
        {
          "internalType": "address",
          "name": "msgSender",
          "type": "address"
        }
      ],
      "name": "getUserAndBetStates",
      "outputs": [
        {
          "internalType": "uint256",
          "name": "balance",
          "type": "uint256"
        },
        {
          "internalType": "uint256",
          "name": "betAmount",
          "type": "uint256"
        },
        {
          "internalType": "bool",
          "name": "hasWon",
          "type": "bool"
        },
        {
          "internalType": "enum SimpleBet.BetChoice",
          "name": "outcome",
          "type": "uint8"
        },
        {
          "internalType": "uint256",
          "name": "totalPot",
          "type": "uint256"
        },
        {
          "internalType": "uint256",
          "name": "betterCount",
          "type": "uint256"
        },
        {
          "internalType": "uint256",
          "name": "upCount",
          "type": "uint256"
        },
        {
          "internalType": "uint256",
          "name": "downCount",
          "type": "uint256"
        },
        {
          "internalType": "uint256",
          "name": "winnerCount",
          "type": "uint256"
        }
      ],
      "stateMutability": "view",
      "type": "function",
      "constant": true
    },
    {
      "inputs": [],
      "name": "getBetStartEndTimes",
      "outputs": [
        {
          "internalType": "uint256",
          "name": "createTime",
          "type": "uint256"
        },
        {
          "internalType": "uint256",
          "name": "endTime",
          "type": "uint256"
        }
      ],
      "stateMutability": "view",
      "type": "function",
      "constant": true
    },
    {
      "inputs": [
        {
          "internalType": "address",
          "name": "msgSender",
          "type": "address"
        }
      ],
      "name": "getUserDetails",
      "outputs": [
        {
          "internalType": "uint256",
          "name": "balance",
          "type": "uint256"
        },
        {
          "internalType": "uint256",
          "name": "betAmount",
          "type": "uint256"
        },
        {
          "internalType": "bool",
          "name": "hasBetted",
          "type": "bool"
        },
        {
          "internalType": "enum SimpleBet.BetChoice",
          "name": "chosenBet",
          "type": "uint8"
        },
        {
          "internalType": "bool",
          "name": "hasWon",
          "type": "bool"
        }
      ],
      "stateMutability": "view",
      "type": "function",
      "constant": true
    },
    {
      "inputs": [],
      "name": "getBetDetails",
      "outputs": [
        {
          "internalType": "uint256",
          "name": "strikePrice",
          "type": "uint256"
        },
        {
          "internalType": "uint256",
          "name": "createTime",
          "type": "uint256"
        },
        {
          "internalType": "uint256",
          "name": "endTime",
          "type": "uint256"
        },
        {
          "internalType": "enum SimpleBet.BetChoice",
          "name": "outcome",
          "type": "uint8"
        },
        {
          "internalType": "uint256",
          "name": "totalPot",
          "type": "uint256"
        },
        {
          "internalType": "uint256",
          "name": "betterCount",
          "type": "uint256"
        },
        {
          "internalType": "uint256",
          "name": "upCount",
          "type": "uint256"
        },
        {
          "internalType": "uint256",
          "name": "downCount",
          "type": "uint256"
        },
        {
          "internalType": "uint256",
          "name": "winnerCount",
          "type": "uint256"
        },
        {
          "internalType": "enum SimpleBet.BetStatus",
          "name": "status",
          "type": "uint8"
        },
        {
          "internalType": "bool",
          "name": "isLive",
          "type": "bool"
        }
      ],
      "stateMutability": "view",
      "type": "function",
      "constant": true
    },
    {
      "inputs": [],
      "name": "getCurrPriceFromOracle",
      "outputs": [
        {
          "internalType": "uint256",
          "name": "",
          "type": "uint256"
        }
      ],
      "stateMutability": "nonpayable",
      "type": "function"
    },
    {
      "inputs": [],
      "name": "getFinalPriceFromOracle",
      "outputs": [
        {
          "internalType": "uint256",
          "name": "",
          "type": "uint256"
        }
      ],
      "stateMutability": "nonpayable",
      "type": "function"
    },
    {
      "inputs": [
        {
          "internalType": "address",
          "name": "msgSender",
          "type": "address"
        }
      ],
      "name": "userDeposit",
      "outputs": [],
      "stateMutability": "payable",
      "type": "function",
      "payable": true
    },
    {
      "inputs": [
        {
          "internalType": "address payable",
          "name": "msgSender",
          "type": "address"
        }
      ],
      "name": "userWithdraw",
      "outputs": [],
      "stateMutability": "nonpayable",
      "type": "function"
    },
    {
      "inputs": [
        {
          "internalType": "uint256",
          "name": "_strikePrice",
          "type": "uint256"
        }
      ],
      "name": "createBet",
      "outputs": [],
      "stateMutability": "nonpayable",
      "type": "function"
    },
    {
      "inputs": [
        {
          "internalType": "address",
          "name": "msgSender",
          "type": "address"
        },
        {
          "internalType": "enum SimpleBet.BetChoice",
          "name": "_choice",
          "type": "uint8"
        }
      ],
      "name": "userTakeBet",
      "outputs": [],
      "stateMutability": "nonpayable",
      "type": "function"
    },
    {
      "inputs": [],
      "name": "closeBet",
      "outputs": [],
      "stateMutability": "nonpayable",
      "type": "function"
    },
    {
      "inputs": [],
      "name": "resolveBet",
      "outputs": [],
      "stateMutability": "nonpayable",
      "type": "function"
    },
    {
      "inputs": [],
      "name": "resetBet",
      "outputs": [],
      "stateMutability": "nonpayable",
      "type": "function"
    }
  ],
  "bytecode": "0x60806040526000600655604051806101600160405280600081526020016000815260200160008152602001600060028111156200003857fe5b81526020016000815260200160008152602001600081526020016000815260200160008152602001600060038111156200006e57fe5b815260200160001515815250600b60008201518160000155602082015181600101556040820151816002015560608201518160030160006101000a81548160ff02191690836002811115620000bf57fe5b02179055506080820151816004015560a0820151816005015560c0820151816006015560e0820151816007015561010082015181600801556101208201518160090160006101000a81548160ff021916908360038111156200011d57fe5b02179055506101408201518160090160016101000a81548160ff0219169083151502179055505050600062000157620001fb60201b60201c565b9050806000806101000a81548173ffffffffffffffffffffffffffffffffffffffff021916908373ffffffffffffffffffffffffffffffffffffffff1602179055508073ffffffffffffffffffffffffffffffffffffffff16600073ffffffffffffffffffffffffffffffffffffffff167f8be0079c531659141344cd1fd0a4f28419497f9722a3daafe3b4186f6b6457e060405160405180910390a35062000203565b600033905090565b61407d80620002136000396000f3fe6080604052600436106102815760003560e01c8063965f8e341161014f578063cc3d967b116100c1578063ed4c584a1161007a578063ed4c584a14610d2b578063f2a6f21514610d56578063f2fde38b14610d85578063f83be26b14610dd6578063f8b2cb4f14610e51578063f90b0d2f14610eb6576102f3565b8063cc3d967b14610b15578063d1260edd14610bac578063d74935f814610bf0578063d7996cb214610c4e578063e19af68414610c65578063eaa968cc14610d14576102f3565b8063a46c363711610113578063a46c3637146109a7578063a87430ba146109d2578063ac793a6014610a69578063b187bd2614610aa4578063bdb4137314610ad3578063c273ae0514610aea576102f3565b8063965f8e34146108a85780639ba89492146108d35780639ce05df7146108fe5780639d159d9e14610929578063a43e567a14610954576102f3565b8063616d5058116101f35780637f8f6065116101ac5780637f8f6065146107245780638a2fd029146107535780638ce25a93146107e45780638da284241461080f5780638da5cb5b1461083a5780638fced62614610891576102f3565b8063616d50581461059757806366e3c66814610612578063715018a614610677578063749f0e3d1461068e5780637e7e4b47146106c05780637f845655146106f9576102f3565b806341c0e1b51161024557806341c0e1b5146104af57806343146f36146104c6578063439f5ac2146104dd57806347fe810f14610508578063480bc31f146105335780634e69d5601461055e576102f3565b806301260519146102f85780630542631b146103615780632f54bf6e146103b257806337daa09e1461041b57806340b7805014610446576102f3565b366102f3577f88a5966d370b9919b20f3e2c13ff65706f196a4e32cc2c12bf57088f885258743334604051808373ffffffffffffffffffffffffffffffffffffffff1673ffffffffffffffffffffffffffffffffffffffff1681526020018281526020019250505060405180910390a1005b600080fd5b34801561030457600080fd5b506103476004803603602081101561031b57600080fd5b81019080803573ffffffffffffffffffffffffffffffffffffffff169060200190929190505050610f29565b604051808215151515815260200191505060405180910390f35b34801561036d57600080fd5b506103b06004803603602081101561038457600080fd5b81019080803573ffffffffffffffffffffffffffffffffffffffff169060200190929190505050610f82565b005b3480156103be57600080fd5b50610401600480360360208110156103d557600080fd5b81019080803573ffffffffffffffffffffffffffffffffffffffff1690602001909291905050506111fa565b604051808215151515815260200191505060405180910390f35b34801561042757600080fd5b50610430611239565b6040518082815260200191505060405180910390f35b34801561045257600080fd5b506104956004803603602081101561046957600080fd5b81019080803573ffffffffffffffffffffffffffffffffffffffff169060200190929190505050611246565b604051808215151515815260200191505060405180910390f35b3480156104bb57600080fd5b506104c461129f565b005b3480156104d257600080fd5b506104db611388565b005b3480156104e957600080fd5b506104f2611562565b6040518082815260200191505060405180910390f35b34801561051457600080fd5b5061051d61156f565b6040518082815260200191505060405180910390f35b34801561053f57600080fd5b50610548611587565b6040518082815260200191505060405180910390f35b34801561056a57600080fd5b50610573611594565b6040518082600381111561058357fe5b60ff16815260200191505060405180910390f35b3480156105a357600080fd5b506105d0600480360360208110156105ba57600080fd5b81019080803590602001909291905050506115ae565b604051808273ffffffffffffffffffffffffffffffffffffffff1673ffffffffffffffffffffffffffffffffffffffff16815260200191505060405180910390f35b34801561061e57600080fd5b506106616004803603602081101561063557600080fd5b81019080803573ffffffffffffffffffffffffffffffffffffffff1690602001909291905050506115e1565b6040518082815260200191505060405180910390f35b34801561068357600080fd5b5061068c61162d565b005b34801561069a57600080fd5b506106a36117b5565b604051808381526020018281526020019250505060405180910390f35b3480156106cc57600080fd5b506106d56117d2565b604051808260028111156106e557fe5b60ff16815260200191505060405180910390f35b34801561070557600080fd5b5061070e6117ec565b6040518082815260200191505060405180910390f35b34801561073057600080fd5b506107396117f9565b604051808215151515815260200191505060405180910390f35b34801561075f57600080fd5b50610768611813565b604051808c81526020018b81526020018a815260200189600281111561078a57fe5b60ff1681526020018881526020018781526020018681526020018581526020018481526020018360038111156107bc57fe5b60ff168152602001821515151581526020019b50505050505050505050505060405180910390f35b3480156107f057600080fd5b506107f96118d1565b6040518082815260200191505060405180910390f35b34801561081b57600080fd5b506108246118d7565b6040518082815260200191505060405180910390f35b34801561084657600080fd5b5061084f6118e4565b604051808273ffffffffffffffffffffffffffffffffffffffff1673ffffffffffffffffffffffffffffffffffffffff16815260200191505060405180910390f35b34801561089d57600080fd5b506108a661190d565b005b3480156108b457600080fd5b506108bd611c1a565b6040518082815260200191505060405180910390f35b3480156108df57600080fd5b506108e8611c2d565b6040518082815260200191505060405180910390f35b34801561090a57600080fd5b50610913611c37565b6040518082815260200191505060405180910390f35b34801561093557600080fd5b5061093e611c4f565b6040518082815260200191505060405180910390f35b34801561096057600080fd5b50610969611c62565b6040518082600560200280838360005b83811015610994578082015181840152602081019050610979565b5050505090500191505060405180910390f35b3480156109b357600080fd5b506109bc611ce3565b6040518082815260200191505060405180910390f35b3480156109de57600080fd5b50610a21600480360360208110156109f557600080fd5b81019080803573ffffffffffffffffffffffffffffffffffffffff169060200190929190505050611cf0565b6040518086815260200185815260200184151515158152602001836002811115610a4757fe5b60ff168152602001821515151581526020019550505050505060405180910390f35b348015610a7557600080fd5b50610aa260048036036020811015610a8c57600080fd5b8101908080359060200190929190505050611d4d565b005b348015610ab057600080fd5b50610ab9611f51565b604051808215151515815260200191505060405180910390f35b348015610adf57600080fd5b50610ae8611f64565b005b348015610af657600080fd5b50610aff61217e565b6040518082815260200191505060405180910390f35b348015610b2157600080fd5b50610b6460048036036020811015610b3857600080fd5b81019080803573ffffffffffffffffffffffffffffffffffffffff16906020019092919050505061218b565b6040518086815260200185815260200184151515158152602001836002811115610b8a57fe5b60ff168152602001821515151581526020019550505050505060405180910390f35b610bee60048036036020811015610bc257600080fd5b81019080803573ffffffffffffffffffffffffffffffffffffffff16906020019092919050505061232b565b005b348015610bfc57600080fd5b50610c4c60048036036040811015610c1357600080fd5b81019080803573ffffffffffffffffffffffffffffffffffffffff169060200190929190803560ff169060200190929190505050612772565b005b348015610c5a57600080fd5b50610c63612dc7565b005b348015610c7157600080fd5b50610cb460048036036020811015610c8857600080fd5b81019080803573ffffffffffffffffffffffffffffffffffffffff169060200190929190505050612f3e565b604051808a815260200189815260200188151515158152602001876002811115610cda57fe5b60ff168152602001868152602001858152602001848152602001838152602001828152602001995050505050505050505060405180910390f35b348015610d2057600080fd5b50610d2961308d565b005b348015610d3757600080fd5b50610d406132ca565b6040518082815260200191505060405180910390f35b348015610d6257600080fd5b50610d6b6132d7565b604051808215151515815260200191505060405180910390f35b348015610d9157600080fd5b50610dd460048036036020811015610da857600080fd5b81019080803573ffffffffffffffffffffffffffffffffffffffff1690602001909291905050506132ee565b005b348015610de257600080fd5b50610e0f60048036036020811015610df957600080fd5b81019080803590602001909291905050506134fb565b604051808273ffffffffffffffffffffffffffffffffffffffff1673ffffffffffffffffffffffffffffffffffffffff16815260200191505060405180910390f35b348015610e5d57600080fd5b50610ea060048036036020811015610e7457600080fd5b81019080803573ffffffffffffffffffffffffffffffffffffffff16906020019092919050505061358c565b6040518082815260200191505060405180910390f35b348015610ec257600080fd5b50610f0560048036036020811015610ed957600080fd5b81019080803573ffffffffffffffffffffffffffffffffffffffff1690602001909291905050506135d8565b60405180826002811115610f1557fe5b60ff16815260200191505060405180910390f35b6000600a60008373ffffffffffffffffffffffffffffffffffffffff1673ffffffffffffffffffffffffffffffffffffffff16815260200190815260200160002060020160009054906101000a900460ff169050919050565b600760009054906101000a900460ff1615611005576040517f08c379a00000000000000000000000000000000000000000000000000000000081526004018080602001828103825260208152602001807f4572726f723a206369726375697420627265616b65722061637469766174656481525060200191505060405180910390fd5b6000600a60008373ffffffffffffffffffffffffffffffffffffffff1673ffffffffffffffffffffffffffffffffffffffff16815260200190815260200160002060000154116110a0576040517f08c379a0000000000000000000000000000000000000000000000000000000008152600401808060200182810382526024815260200180613f4a6024913960400191505060405180910390fd5b6000600a60008373ffffffffffffffffffffffffffffffffffffffff1673ffffffffffffffffffffffffffffffffffffffff1681526020019081526020016000206000015490506000600a60008473ffffffffffffffffffffffffffffffffffffffff1673ffffffffffffffffffffffffffffffffffffffff1681526020019081526020016000206000018190555060008273ffffffffffffffffffffffffffffffffffffffff168261753090604051806000019050600060405180830381858888f193505050503d8060008114611194576040519150601f19603f3d011682016040523d82523d6000602084013e611199565b606091505b50509050806111a757600080fd5b8273ffffffffffffffffffffffffffffffffffffffff167f7e26c5762fd0d00e1cd74ddc99f6567f572084682d26455ed173fe87975ed2af836040518082815260200191505060405180910390a2505050565b60008173ffffffffffffffffffffffffffffffffffffffff1661121b6118e4565b73ffffffffffffffffffffffffffffffffffffffff16149050919050565b6000600b60060154905090565b6000600a60008373ffffffffffffffffffffffffffffffffffffffff1673ffffffffffffffffffffffffffffffffffffffff16815260200190815260200160002060020160029054906101000a900460ff169050919050565b6112a7613631565b73ffffffffffffffffffffffffffffffffffffffff166000809054906101000a900473ffffffffffffffffffffffffffffffffffffffff1673ffffffffffffffffffffffffffffffffffffffff1614611368576040517f08c379a00000000000000000000000000000000000000000000000000000000081526004018080602001828103825260208152602001807f4f776e61626c653a2063616c6c6572206973206e6f7420746865206f776e657281525060200191505060405180910390fd5b6113706118e4565b73ffffffffffffffffffffffffffffffffffffffff16ff5b611390613631565b73ffffffffffffffffffffffffffffffffffffffff166000809054906101000a900473ffffffffffffffffffffffffffffffffffffffff1673ffffffffffffffffffffffffffffffffffffffff1614611451576040517f08c379a00000000000000000000000000000000000000000000000000000000081526004018080602001828103825260208152602001807f4f776e61626c653a2063616c6c6572206973206e6f7420746865206f776e657281525060200191505060405180910390fd5b60006009819055506000600b600001819055506000600b600101819055506000600b600201819055506000600b60030160006101000a81548160ff0219169083600281111561149c57fe5b02179055506000600b600401819055506000600b600501819055506000600b600601819055506000600b600701819055506000600b600801819055506000600b60090160006101000a81548160ff021916908360038111156114fa57fe5b02179055506000600b60090160016101000a81548160ff0219169083151502179055503373ffffffffffffffffffffffffffffffffffffffff167f4968d54de309e7b496fbf4f703e4c29c3dda6e0175f401b1387c4d32a382fe5360405160405180910390a2565b6000600b60020154905090565b6000611579611c1a565b600881905550600854905090565b6000600b60040154905090565b6000600b60090160009054906101000a900460ff16905090565b600181600581106115bb57fe5b016000915054906101000a900473ffffffffffffffffffffffffffffffffffffffff1681565b6000600a60008373ffffffffffffffffffffffffffffffffffffffff1673ffffffffffffffffffffffffffffffffffffffff168152602001908152602001600020600101549050919050565b611635613631565b73ffffffffffffffffffffffffffffffffffffffff166000809054906101000a900473ffffffffffffffffffffffffffffffffffffffff1673ffffffffffffffffffffffffffffffffffffffff16146116f6576040517f08c379a00000000000000000000000000000000000000000000000000000000081526004018080602001828103825260208152602001807f4f776e61626c653a2063616c6c6572206973206e6f7420746865206f776e657281525060200191505060405180910390fd5b600073ffffffffffffffffffffffffffffffffffffffff166000809054906101000a900473ffffffffffffffffffffffffffffffffffffffff1673ffffffffffffffffffffffffffffffffffffffff167f8be0079c531659141344cd1fd0a4f28419497f9722a3daafe3b4186f6b6457e060405160405180910390a360008060006101000a81548173ffffffffffffffffffffffffffffffffffffffff021916908373ffffffffffffffffffffffffffffffffffffffff160217905550565b600080600b600101549150600b6002015490508181915091509091565b6000600b60030160009054906101000a900460ff16905090565b6000600b60010154905090565b6000600b60090160019054906101000a900460ff16905090565b6000806000806000806000806000806000600b600001549a50600b600101549950600b600201549850600b60030160009054906101000a900460ff169750600b600401549650600b600501549550600b600601549450600b600701549350600b600801549250600b60090160009054906101000a900460ff169150600b60090160019054906101000a900460ff1690508a8a8a8a8a8a8a8a8a8a8a9a509a509a509a509a509a509a509a509a509a509a50909192939495969798999a565b60065481565b6000600b60070154905090565b60008060009054906101000a900473ffffffffffffffffffffffffffffffffffffffff16905090565b611915613631565b73ffffffffffffffffffffffffffffffffffffffff166000809054906101000a900473ffffffffffffffffffffffffffffffffffffffff1673ffffffffffffffffffffffffffffffffffffffff16146119d6576040517f08c379a00000000000000000000000000000000000000000000000000000000081526004018080602001828103825260208152602001807f4f776e61626c653a2063616c6c6572206973206e6f7420746865206f776e657281525060200191505060405180910390fd5b600760009054906101000a900460ff1615611a59576040517f08c379a00000000000000000000000000000000000000000000000000000000081526004018080602001828103825260208152602001807f4572726f723a206369726375697420627265616b65722061637469766174656481525060200191505060405180910390fd5b600b60090160019054906101000a900460ff16611ade576040517f08c379a00000000000000000000000000000000000000000000000000000000081526004018080602001828103825260138152602001807f4572726f723a20626574204e4f54206c6976650000000000000000000000000081525060200191505060405180910390fd5b6003600b60090160006101000a81548160ff02191690836003811115611b0057fe5b02179055506000600b60090160016101000a81548160ff021916908315150217905550611b2b613639565b611b336139ed565b3373ffffffffffffffffffffffffffffffffffffffff167ff640c99743ecbcc254ce8029424025ed41db21277c985d874bc5f6e772876584600b60000154600954600b60030160009054906101000a900460ff1660405180848152602001838152602001826002811115611ba357fe5b60ff168152602001935050505060405180910390a23373ffffffffffffffffffffffffffffffffffffffff167f29ab07fcc56afd399162e1d6ccbba614af1f738f3fd324060653b41db40ca105600b60040154600b60080154604051808381526020018281526020019250505060405180910390a2565b6000610291600881905550600854905090565b6000600654905090565b6000611c41611c4f565b600981905550600954905090565b6000610370600981905550600954905090565b611c6a613f27565b6001600580602002604051908101604052809291908260058015611cd9576020028201915b8160009054906101000a900473ffffffffffffffffffffffffffffffffffffffff1673ffffffffffffffffffffffffffffffffffffffff1681526020019060010190808311611c8f575b5050505050905090565b6000600b60080154905090565b600a6020528060005260406000206000915090508060000154908060010154908060020160009054906101000a900460ff16908060020160019054906101000a900460ff16908060020160029054906101000a900460ff16905085565b611d55613631565b73ffffffffffffffffffffffffffffffffffffffff166000809054906101000a900473ffffffffffffffffffffffffffffffffffffffff1673ffffffffffffffffffffffffffffffffffffffff1614611e16576040517f08c379a00000000000000000000000000000000000000000000000000000000081526004018080602001828103825260208152602001807f4f776e61626c653a2063616c6c6572206973206e6f7420746865206f776e657281525060200191505060405180910390fd5b600760009054906101000a900460ff1615611e99576040517f08c379a00000000000000000000000000000000000000000000000000000000081526004018080602001828103825260208152602001807f4572726f723a206369726375697420627265616b65722061637469766174656481525060200191505060405180910390fd5b80600b6000018190555042600b60010181905550610e104201600b600201819055506001600b60090160006101000a81548160ff02191690836003811115611edd57fe5b02179055506001600b60090160016101000a81548160ff0219169083151502179055503373ffffffffffffffffffffffffffffffffffffffff167f877d097bfe2b5891b30ca5494ad2a4943b40dc6b34cb9b8f6b919360e33cf4b3826040518082815260200191505060405180910390a250565b600760009054906101000a900460ff1681565b611f6c613631565b73ffffffffffffffffffffffffffffffffffffffff166000809054906101000a900473ffffffffffffffffffffffffffffffffffffffff1673ffffffffffffffffffffffffffffffffffffffff161461202d576040517f08c379a00000000000000000000000000000000000000000000000000000000081526004018080602001828103825260208152602001807f4f776e61626c653a2063616c6c6572206973206e6f7420746865206f776e657281525060200191505060405180910390fd5b600760009054906101000a900460ff16156120b0576040517f08c379a00000000000000000000000000000000000000000000000000000000081526004018080602001828103825260208152602001807f4572726f723a206369726375697420627265616b65722061637469766174656481525060200191505060405180910390fd5b600b60090160019054906101000a900460ff16612135576040517f08c379a00000000000000000000000000000000000000000000000000000000081526004018080602001828103825260138152602001807f4572726f723a20626574204e4f54206c6976650000000000000000000000000081525060200191505060405180910390fd5b6001600760006101000a81548160ff0219169083151502179055507fd51dd2af54dc4d8a218d0129c986a4c39924ff176e80d86371b31ddd8095bba760405160405180910390a1565b6000600b60050154905090565b6000806000806000600a60008773ffffffffffffffffffffffffffffffffffffffff1673ffffffffffffffffffffffffffffffffffffffff168152602001908152602001600020600001549450600a60008773ffffffffffffffffffffffffffffffffffffffff1673ffffffffffffffffffffffffffffffffffffffff168152602001908152602001600020600101549350600a60008773ffffffffffffffffffffffffffffffffffffffff1673ffffffffffffffffffffffffffffffffffffffff16815260200190815260200160002060020160009054906101000a900460ff169250600a60008773ffffffffffffffffffffffffffffffffffffffff1673ffffffffffffffffffffffffffffffffffffffff16815260200190815260200160002060020160019054906101000a900460ff169150600a60008773ffffffffffffffffffffffffffffffffffffffff1673ffffffffffffffffffffffffffffffffffffffff16815260200190815260200160002060020160029054906101000a900460ff16905084848484849450945094509450945091939590929450565b600760009054906101000a900460ff16156123ae576040517f08c379a00000000000000000000000000000000000000000000000000000000081526004018080602001828103825260208152602001807f4572726f723a206369726375697420627265616b65722061637469766174656481525060200191505060405180910390fd5b600560065410612409576040517f08c379a000000000000000000000000000000000000000000000000000000000815260040180806020018281038252603f815260200180613fb8603f913960400191505060405180910390fd5b600034905060008111612484576040517f08c379a00000000000000000000000000000000000000000000000000000000081526004018080602001828103825260208152602001807f4572726f723a2043616e6e6f74206465706f736974207a65726f20457468657281525060200191505060405180910390fd5b600080905060008090505b6006548110156125ac578373ffffffffffffffffffffffffffffffffffffffff16600182600581106124bd57fe5b0160009054906101000a900473ffffffffffffffffffffffffffffffffffffffff1673ffffffffffffffffffffffffffffffffffffffff16141561259f576001915061255483600a60008773ffffffffffffffffffffffffffffffffffffffff1673ffffffffffffffffffffffffffffffffffffffff16815260200190815260200160002060000154613c8590919063ffffffff16565b600a60008673ffffffffffffffffffffffffffffffffffffffff1673ffffffffffffffffffffffffffffffffffffffff168152602001908152602001600020600001819055506125ac565b808060010191505061248f565b5060001515811515141561271f57826001600654600581106125ca57fe5b0160006101000a81548173ffffffffffffffffffffffffffffffffffffffff021916908373ffffffffffffffffffffffffffffffffffffffff1602179055506040518060a00160405280838152602001600081526020016000151581526020016000600281111561263757fe5b815260200160001515815250600a60008573ffffffffffffffffffffffffffffffffffffffff1673ffffffffffffffffffffffffffffffffffffffff168152602001908152602001600020600082015181600001556020820151816001015560408201518160020160006101000a81548160ff02191690831515021790555060608201518160020160016101000a81548160ff021916908360028111156126da57fe5b021790555060808201518160020160026101000a81548160ff0219169083151502179055509050506127186001600654613c8590919063ffffffff16565b6006819055505b8273ffffffffffffffffffffffffffffffffffffffff167f646eeab7a45f69111e63fcf7294a81c1b8c9bbb7a1704896ea8c8068fdfee15a836040518082815260200191505060405180910390a2505050565b600760009054906101000a900460ff16156127f5576040517f08c379a00000000000000000000000000000000000000000000000000000000081526004018080602001828103825260208152602001807f4572726f723a206369726375697420627265616b65722061637469766174656481525060200191505060405180910390fd5b600b60090160019054906101000a900460ff1661287a576040517f08c379a00000000000000000000000000000000000000000000000000000000081526004018080602001828103825260138152602001807f4572726f723a20626574204e4f54206c6976650000000000000000000000000081525060200191505060405180910390fd5b6000429050600b6002015481106128f9576040517f08c379a000000000000000000000000000000000000000000000000000000000815260040180806020018281038252601c8152602001807f4572726f723a2042657420697320616c726561647920636c6f7365640000000081525060200191505060405180910390fd5b6000670de0b6b3a7640000905080600a60008673ffffffffffffffffffffffffffffffffffffffff1673ffffffffffffffffffffffffffffffffffffffff1681526020019081526020016000206000015410156129a1576040517f08c379a0000000000000000000000000000000000000000000000000000000008152600401808060200182810382526024815260200180613f946024913960400191505060405180910390fd5b600a60008573ffffffffffffffffffffffffffffffffffffffff1673ffffffffffffffffffffffffffffffffffffffff16815260200190815260200160002060020160009054906101000a900460ff1615612a64576040517f08c379a00000000000000000000000000000000000000000000000000000000081526004018080602001828103825260158152602001807f4572726f723a20416c726561647920626574746564000000000000000000000081525060200191505060405180910390fd5b6001600a60008673ffffffffffffffffffffffffffffffffffffffff1673ffffffffffffffffffffffffffffffffffffffff16815260200190815260200160002060020160006101000a81548160ff021916908315150217905550612b1481600a60008773ffffffffffffffffffffffffffffffffffffffff1673ffffffffffffffffffffffffffffffffffffffff16815260200190815260200160002060000154613d0d90919063ffffffff16565b600a60008673ffffffffffffffffffffffffffffffffffffffff1673ffffffffffffffffffffffffffffffffffffffff16815260200190815260200160002060000181905550612baf81600a60008773ffffffffffffffffffffffffffffffffffffffff1673ffffffffffffffffffffffffffffffffffffffff16815260200190815260200160002060010154613c8590919063ffffffff16565b600a60008673ffffffffffffffffffffffffffffffffffffffff1673ffffffffffffffffffffffffffffffffffffffff1681526020019081526020016000206001018190555082600a60008673ffffffffffffffffffffffffffffffffffffffff1673ffffffffffffffffffffffffffffffffffffffff16815260200190815260200160002060020160016101000a81548160ff02191690836002811115612c5357fe5b0217905550612cb2600a60008673ffffffffffffffffffffffffffffffffffffffff1673ffffffffffffffffffffffffffffffffffffffff16815260200190815260200160002060010154600b60040154613c8590919063ffffffff16565b600b60040181905550612cd46001600b60050154613c8590919063ffffffff16565b600b6005018190555060016002811115612cea57fe5b836002811115612cf657fe5b1415612d2357612d156001600b60060154613c8590919063ffffffff16565b600b60060181905550612d65565b600280811115612d2f57fe5b836002811115612d3b57fe5b1415612d6457612d5a6001600b60070154613c8590919063ffffffff16565b600b600701819055505b5b8373ffffffffffffffffffffffffffffffffffffffff167fb21ea8357ba991958548faf853ceb0e4cc10c66c8fa7e427ff432e367c0d9a8f8460405180826002811115612dae57fe5b60ff16815260200191505060405180910390a250505050565b612dcf613631565b73ffffffffffffffffffffffffffffffffffffffff166000809054906101000a900473ffffffffffffffffffffffffffffffffffffffff1673ffffffffffffffffffffffffffffffffffffffff1614612e90576040517f08c379a00000000000000000000000000000000000000000000000000000000081526004018080602001828103825260208152602001807f4f776e61626c653a2063616c6c6572206973206e6f7420746865206f776e657281525060200191505060405180910390fd5b600760009054906101000a900460ff16612ef5576040517f08c379a0000000000000000000000000000000000000000000000000000000008152600401808060200182810382526024815260200180613ff76024913960400191505060405180910390fd5b6000600760006101000a81548160ff0219169083151502179055507f4a689864874be0737d5e351af8c5c833e2c631d6b79036c19091486a1c42183b60405160405180910390a1565b6000806000806000806000806000600a60008b73ffffffffffffffffffffffffffffffffffffffff1673ffffffffffffffffffffffffffffffffffffffff168152602001908152602001600020600001549850600a60008b73ffffffffffffffffffffffffffffffffffffffff1673ffffffffffffffffffffffffffffffffffffffff168152602001908152602001600020600101549750600a60008b73ffffffffffffffffffffffffffffffffffffffff1673ffffffffffffffffffffffffffffffffffffffff16815260200190815260200160002060020160029054906101000a900460ff169650600b60030160009054906101000a900460ff169550600b600401549450600b600501549350600b600601549250600b600701549150600b6008015490508888888888888888889850985098509850985098509850985098509193959799909294969850565b613095613631565b73ffffffffffffffffffffffffffffffffffffffff166000809054906101000a900473ffffffffffffffffffffffffffffffffffffffff1673ffffffffffffffffffffffffffffffffffffffff1614613156576040517f08c379a00000000000000000000000000000000000000000000000000000000081526004018080602001828103825260208152602001807f4f776e61626c653a2063616c6c6572206973206e6f7420746865206f776e657281525060200191505060405180910390fd5b600760009054906101000a900460ff16156131d9576040517f08c379a00000000000000000000000000000000000000000000000000000000081526004018080602001828103825260208152602001807f4572726f723a206369726375697420627265616b65722061637469766174656481525060200191505060405180910390fd5b600b60090160019054906101000a900460ff1661325e576040517f08c379a00000000000000000000000000000000000000000000000000000000081526004018080602001828103825260138152602001807f4572726f723a20626574204e4f54206c6976650000000000000000000000000081525060200191505060405180910390fd5b6002600b60090160006101000a81548160ff0219169083600381111561328057fe5b02179055503373ffffffffffffffffffffffffffffffffffffffff167f9b8e241b2cf08ea4ece1254b921780e630cfdb10f13f91a11bc3dad50eade46e60405160405180910390a2565b6000600b60000154905090565b6000600760009054906101000a900460ff16905090565b6132f6613631565b73ffffffffffffffffffffffffffffffffffffffff166000809054906101000a900473ffffffffffffffffffffffffffffffffffffffff1673ffffffffffffffffffffffffffffffffffffffff16146133b7576040517f08c379a00000000000000000000000000000000000000000000000000000000081526004018080602001828103825260208152602001807f4f776e61626c653a2063616c6c6572206973206e6f7420746865206f776e657281525060200191505060405180910390fd5b600073ffffffffffffffffffffffffffffffffffffffff168173ffffffffffffffffffffffffffffffffffffffff16141561343d576040517f08c379a0000000000000000000000000000000000000000000000000000000008152600401808060200182810382526026815260200180613f6e6026913960400191505060405180910390fd5b8073ffffffffffffffffffffffffffffffffffffffff166000809054906101000a900473ffffffffffffffffffffffffffffffffffffffff1673ffffffffffffffffffffffffffffffffffffffff167f8be0079c531659141344cd1fd0a4f28419497f9722a3daafe3b4186f6b6457e060405160405180910390a3806000806101000a81548173ffffffffffffffffffffffffffffffffffffffff021916908373ffffffffffffffffffffffffffffffffffffffff16021790555050565b600060058210613556576040517f08c379a000000000000000000000000000000000000000000000000000000000815260040180806020018281038252602d81526020018061401b602d913960400191505060405180910390fd5b6001826005811061356357fe5b0160009054906101000a900473ffffffffffffffffffffffffffffffffffffffff169050919050565b6000600a60008373ffffffffffffffffffffffffffffffffffffffff1673ffffffffffffffffffffffffffffffffffffffff168152602001908152602001600020600001549050919050565b6000600a60008373ffffffffffffffffffffffffffffffffffffffff1673ffffffffffffffffffffffffffffffffffffffff16815260200190815260200160002060020160019054906101000a900460ff169050919050565b600033905090565b613641613631565b73ffffffffffffffffffffffffffffffffffffffff166000809054906101000a900473ffffffffffffffffffffffffffffffffffffffff1673ffffffffffffffffffffffffffffffffffffffff1614613702576040517f08c379a00000000000000000000000000000000000000000000000000000000081526004018080602001828103825260208152602001807f4f776e61626c653a2063616c6c6572206973206e6f7420746865206f776e657281525060200191505060405180910390fd5b61370a611c4f565b600981905550600b600001546009541061374a576001600b60030160006101000a81548160ff0219169083600281111561374057fe5b0217905550613782565b600b600001546009541015613781576002600b60030160006101000a81548160ff0219169083600281111561377b57fe5b02179055505b5b60008090505b6006548110156139ea576000600a6000600184600581106137a557fe5b0160009054906101000a900473ffffffffffffffffffffffffffffffffffffffff1673ffffffffffffffffffffffffffffffffffffffff1673ffffffffffffffffffffffffffffffffffffffff168152602001908152602001600020600101541180156138b65750600b60030160009054906101000a900460ff16600281111561382b57fe5b600a60006001846005811061383c57fe5b0160009054906101000a900473ffffffffffffffffffffffffffffffffffffffff1673ffffffffffffffffffffffffffffffffffffffff1673ffffffffffffffffffffffffffffffffffffffff16815260200190815260200160002060020160019054906101000a900460ff1660028111156138b457fe5b145b15613967576001600a6000600184600581106138ce57fe5b0160009054906101000a900473ffffffffffffffffffffffffffffffffffffffff1673ffffffffffffffffffffffffffffffffffffffff1673ffffffffffffffffffffffffffffffffffffffff16815260200190815260200160002060020160026101000a81548160ff02191690831515021790555061395d6001600b60080154613c8590919063ffffffff16565b600b600801819055505b6000600a60006001846005811061397a57fe5b0160009054906101000a900473ffffffffffffffffffffffffffffffffffffffff1673ffffffffffffffffffffffffffffffffffffffff1673ffffffffffffffffffffffffffffffffffffffff168152602001908152602001600020600101819055508080600101915050613788565b50565b6139f5613631565b73ffffffffffffffffffffffffffffffffffffffff166000809054906101000a900473ffffffffffffffffffffffffffffffffffffffff1673ffffffffffffffffffffffffffffffffffffffff1614613ab6576040517f08c379a00000000000000000000000000000000000000000000000000000000081526004018080602001828103825260208152602001807f4f776e61626c653a2063616c6c6572206973206e6f7420746865206f776e657281525060200191505060405180910390fd5b60008090506000600b600801541115613ae957613ae6600b60080154600b60040154613d5790919063ffffffff16565b90505b60008090505b600654811015613c8157600a600060018360058110613b0a57fe5b0160009054906101000a900473ffffffffffffffffffffffffffffffffffffffff1673ffffffffffffffffffffffffffffffffffffffff1673ffffffffffffffffffffffffffffffffffffffff16815260200190815260200160002060020160029054906101000a900460ff1615613c7457613bff82600a600060018560058110613b9157fe5b0160009054906101000a900473ffffffffffffffffffffffffffffffffffffffff1673ffffffffffffffffffffffffffffffffffffffff1673ffffffffffffffffffffffffffffffffffffffff16815260200190815260200160002060000154613c8590919063ffffffff16565b600a600060018460058110613c1057fe5b0160009054906101000a900473ffffffffffffffffffffffffffffffffffffffff1673ffffffffffffffffffffffffffffffffffffffff1673ffffffffffffffffffffffffffffffffffffffff168152602001908152602001600020600001819055505b8080600101915050613aef565b5050565b600080828401905083811015613d03576040517f08c379a000000000000000000000000000000000000000000000000000000000815260040180806020018281038252601b8152602001807f536166654d6174683a206164646974696f6e206f766572666c6f77000000000081525060200191505060405180910390fd5b8091505092915050565b6000613d4f83836040518060400160405280601e81526020017f536166654d6174683a207375627472616374696f6e206f766572666c6f770000815250613da1565b905092915050565b6000613d9983836040518060400160405280601a81526020017f536166654d6174683a206469766973696f6e206279207a65726f000000000000815250613e61565b905092915050565b6000838311158290613e4e576040517f08c379a00000000000000000000000000000000000000000000000000000000081526004018080602001828103825283818151815260200191508051906020019080838360005b83811015613e13578082015181840152602081019050613df8565b50505050905090810190601f168015613e405780820380516001836020036101000a031916815260200191505b509250505060405180910390fd5b5060008385039050809150509392505050565b60008083118290613f0d576040517f08c379a00000000000000000000000000000000000000000000000000000000081526004018080602001828103825283818151815260200191508051906020019080838360005b83811015613ed2578082015181840152602081019050613eb7565b50505050905090810190601f168015613eff5780820380516001836020036101000a031916815260200191505b509250505060405180910390fd5b506000838581613f1957fe5b049050809150509392505050565b6040518060a0016040528060059060208202803883398082019150509050509056fe4572726f723a2043616e6e6f742077697468647261772c207a65726f2062616c616e63654f776e61626c653a206e6577206f776e657220697320746865207a65726f20616464726573734572726f723a204e6f742073756666696369656e742066756e6420696e2077616c6c6574416c72656164792072656163686564206d6178206e756d626572206f66206265747465727320616c6c6f7765642e2054727920616761696e206c61746572214572726f723a206369726375697420627265616b6572204e4f54206163746976617465644e6f206d6f7265207468616e2035206163636f756e74732061726520616c6c6f77656420617420612074696d65a26469706673582212207d7e754af49ae3d9bcade79e911f9e181155d9fe1cfeca19ba873482694c081364736f6c63430006000033",
  "source": "// SPDX-License-Identifier: MIT\npragma solidity >=0.5.0 <0.7.0;\n\n//import \"../contracts/Ilighthouse.sol\";\nimport '../../node_modules/@openzeppelin/contracts/math/SafeMath.sol';\nimport '../../node_modules/@openzeppelin/contracts/access/Ownable.sol';\n\n/**\n * @title SimpleBet Smart Contract\n * @author Yue WANG\n * @notice This app is in very early alpha and not production ready\n**/\ncontract SimpleBet is Ownable {\n    /// Libraries\n    using SafeMath for uint;\n    using SafeMath for uint256;\n\n    /// Oracle Lighthouse\n    /// ILighthouse public myLighthouse;\n    \n    /**\n     *  Events - publicize actions to external listeners\n    **/\n    event LogPauseBet();\n    event LogResumeBet();\n\n    event LogCreateBet(address indexed sender, uint256 strikePrice);\n    event LogCloseBet(address indexed sender);\n    event LogResolveBet(address indexed sender, uint256 strikePrice, uint256 finalPrice, BetChoice outcome);\n    /// TODO -- to add bet ID & winner address list\n    event LogSetBetPayout(address indexed sender, uint256 totalPot, uint256 winnerCount);\n    event LogResetBet(address indexed sender);\n\n    event LogUserDeposit(address indexed sender, uint256 amount);\n    event LogUserWithdraw(address indexed sender, uint256 walletAmount);\n    event LogUserTakeBet(address indexed sender, BetChoice choice);\n\n    /// Storage Variables\n    address[5] public userAccounts;         // Array of users registered\n    uint256 public numAccounts = 0;         // Should be <= 4, this holds number of registered users\n\n    bool public isPaused;\n    uint256 currPrice;\n    uint256 finalPrice;\n\n    enum BetChoice { NA, Above, Below }\n    enum BetStatus { NOT_STARTED, STARTED, CLOSED, RESOLVED }\n\n    /// This represents a single user\n    struct User {\n      uint256 balance;          // Stores ether user deposited in a wallet\n      uint256 betAmount;        // Holds ether user have set aside for betting on an upcoming stock price bet \n      bool hasBetted;           // If true, the user has already betted\n      BetChoice chosenBet;      // Holds users bet choice on an upcoming stock price bet\n      bool hasWon;              // Holds users betting outcome - True (bet successful) or False (bet failed)\n    }\n\n    /// This represents a single bet\n    ///   TODO -- Underlying should have their own structs or classes, to be implemented...\n    ///   TODO -- Bet ID to be added after Bet Factory implementation\n    struct Bet {\n      //uint256 betId;\n      //string underlying;          \n      uint256 strikePrice;\n      uint256 createTime;\n      uint256 endTime;\n      BetChoice outcome;\n      uint256 totalPot;\n      uint256 betterCount;\n      uint256 upCount;\n      uint256 downCount;\n      uint256 winnerCount;\n      BetStatus status;\n      bool isLive;\n    }\n\n    function isOwner(address msgSender) public view returns (bool) {\n        return (owner() == msgSender);\n    }\n\n    /// Declares a state variable that stores a `User` struct for each possible address\n    mapping(address => User) public users;\n\n    /// Instantiate and set default value to Bet\n    Bet bet = Bet(0, 0, 0, BetChoice.NA, 0, 0, 0, 0, 0, BetStatus.NOT_STARTED, false);\n\n    /// Modifiers\n    ///   TODO -- More to be Added!\n    modifier notPaused() {\n      require(!isPaused, 'Error: circuit breaker activated');\n      _;\n    }\n\n    modifier paused() {\n      require(isPaused, 'Error: circuit breaker NOT activated');\n      _;\n    }\n\n    modifier betIsLive() {\n      require(bet.isLive, 'Error: bet NOT live');\n      _;\n    }\n\n    /**\n     *  Constructor\n     * constructor(ILighthouse _myLighthouse) public { \n     *   myLighthouse = _myLighthouse; \n     * }\n    **/\n\n    /**\n     *  Contruct Destructor - Mortal design pattern to destroy the contract n remove from blockchain\n     * }\n    **/\n    function kill() public onlyOwner {\n      selfdestruct(address(uint160(owner()))); /// cast owner to address payable\n    }\n\n    /**\n     *   Receive Ether function \n    **/\n    event Received(address, uint256);\n    receive() external payable {\n        emit Received(msg.sender, msg.value);\n    }\n\n    /**\n     *   Fallback function - Called if other functions don't match call or sent ether without data\n    **/\n    fallback() external payable {\n      revert();\n    }\n\n    /**\n     *  Functions to display the internal state (Pass in sender address manually \n     *     coz truffle proxy contracts interfer with msg.sender)\n    **/\n    /// Removed view keyword for getCurrPrice and getFinalPrice because of Oracle call\n    function getCurrPrice() public returns(uint256) {\n      currPrice = getCurrPriceFromOracle();\n      return currPrice;\n    }\n\n    function getFinalPrice() public returns(uint256) {\n      finalPrice = getFinalPriceFromOracle();\n      return finalPrice;\n    }\n\n    function getUserAccounts() public view returns(address[5] memory) {\n      return userAccounts;\n    }\n\n    function getThisAccount(uint ind) public view returns(address) {\n      require(ind < 5, \"No more than 5 accounts are allowed at a time\");\n      return userAccounts[ind];\n    }\n\n    function getNumAccounts() public view returns(uint256) {\n      return numAccounts;\n    }\n    \n    function getIsPaused() public view returns(bool) {\n      return isPaused;\n    }\n\n    function getBalance(address msgSender) public view returns(uint256) {\n      return users[msgSender].balance;\n    }\n\n    function getBetAmount(address msgSender) public view returns(uint256) {\n      return users[msgSender].betAmount;\n    }\n\n    function getBetStatus(address msgSender) public view returns(bool) {\n      return users[msgSender].hasBetted;\n    }\n\n    function getChosenBet(address msgSender) public view returns(BetChoice) {\n      return users[msgSender].chosenBet;\n    }\n\n    function getWinningStatus(address msgSender) public view returns(bool) {\n      return users[msgSender].hasWon;\n    }\n    /**\n     *function getUnderlying() public view returns(string memory) {\n     * return bet.underlying;\n     *}\n    **/\n    function getStrikePrice() public view returns(uint256) {\n      return bet.strikePrice;\n    }\n    function getCreateTime() public view returns(uint256) {\n      return bet.createTime;\n    }\n    function getEndTime() public view returns(uint256) {\n      return bet.endTime;\n    }\n    function getOutcome() public view returns(BetChoice) {\n      return bet.outcome;\n    }\n    function getTotalPot() public view returns(uint256) {\n      return bet.totalPot;\n    }\n    function getBetterCount() public view returns(uint256) {\n      return bet.betterCount;\n    }\n    function getUpCount() public view returns(uint256) {\n      return bet.upCount;\n    }\n    function getDownnCount() public view returns(uint256) {\n      return bet.downCount;\n    }\n    function getWinnerCount() public view returns(uint256) {\n      return bet.winnerCount;\n    }\n    function getStatus() public view returns(BetStatus) {\n      return bet.status;\n    }\n    function getIsLive() public view returns(bool) {\n      return bet.isLive;\n    }\n\n    /// Circuit Breakers - for Emergency use only!\n    function pauseBet() external onlyOwner notPaused betIsLive {\n      isPaused = true;\n      emit LogPauseBet();\n    }\n\n    function resumeBet() external onlyOwner paused {\n      isPaused = false;\n      emit LogResumeBet();\n    }\n\n    /// State getter for React front event handling method calls\n    function getUserAndBetStates(address msgSender) public view returns (\n          uint256 balance,\n          uint256 betAmount,\n          bool hasWon,\n          BetChoice outcome,\n          uint256 totalPot,\n          uint256 betterCount,\n          uint256 upCount,\n          uint256 downCount,\n          uint256 winnerCount\n        )\n    {\n        balance = users[msgSender].balance;\n        betAmount = users[msgSender].betAmount;\n        hasWon = users[msgSender].hasWon;\n        outcome = bet.outcome;\n        totalPot = bet.totalPot;\n        betterCount = bet.betterCount;\n        upCount = bet.upCount;\n        downCount = bet.downCount;\n        winnerCount = bet.winnerCount;\n\n        return ( balance, betAmount, hasWon, outcome, totalPot, betterCount, upCount, downCount, winnerCount );\n    }\n\n    /// State getter for React front event handling method calls\n    function getBetStartEndTimes() public view returns (uint256 createTime, uint256 endTime){\n        createTime = bet.createTime;\n        endTime = bet.endTime;\n\n        return (createTime, endTime);\n    }\n\n    /// State getter for React front event handling method calls\n    function getUserDetails(address msgSender) public view returns (\n          uint256 balance,\n          uint256 betAmount,\n          bool hasBetted,\n          BetChoice chosenBet,\n          bool hasWon\n        )\n    {\n        balance = users[msgSender].balance;\n        betAmount = users[msgSender].betAmount;\n        hasBetted = users[msgSender].hasBetted;\n        chosenBet = users[msgSender].chosenBet;\n        hasWon = users[msgSender].hasWon;\n\n        return (balance, betAmount, hasBetted, chosenBet, hasWon);\n    }\n\n    /// State getter for React front event handling method calls\n    function getBetDetails() public view returns (\n          uint256 strikePrice,\n          uint256 createTime,\n          uint256 endTime,\n          BetChoice outcome,\n          uint256 totalPot,\n          uint256 betterCount,\n          uint256 upCount,\n          uint256 downCount,\n          uint256 winnerCount,\n          BetStatus status,\n          bool isLive\n        )\n    {\n        strikePrice = bet.strikePrice;\n        createTime = bet.createTime;\n        endTime = bet.endTime;\n        outcome = bet.outcome;\n        totalPot = bet.totalPot;\n        betterCount = bet.betterCount;\n        upCount = bet.upCount;\n        downCount = bet.downCount;\n        winnerCount = bet.winnerCount;\n        status = bet.status;\n        isLive = bet.isLive;\n\n        return (strikePrice, createTime, endTime, outcome, totalPot, betterCount, upCount, downCount, winnerCount, status, isLive);\n    }\n\n    // ***********************************************************\n    //   Functions to handle market data - with the use of oracle\n    // ***********************************************************\n    function getCurrPriceFromOracle() public returns(uint256){\n      currPrice = 657;   // Use an arbitrary number for initial testing purpose, without oracle usage.\n\n      //bool ok;\n      // Need to use the right function call to get stock price from Rhombus Lighthouse oracle\n      //(bet.currPrice,ok) = myLighthouse.peekData();\n      return currPrice;\n    }\n\n    // Call oracle and reveal the final official price for all players who bet on this round;\n    // Those who made the correct predication will receive their win (overall bet pool for this round\n    // minus fees, then divided by 3 of winners). Those who made wrong prediction will lose all deposit\n    function getFinalPriceFromOracle() public returns(uint256){\n      finalPrice = 880;    // Use an arbitrary number for initial testing purpose, without oracle usage.\n\n      //bool ok;\n      // Need to use the right function call to get stock price from Rhombus Lighthouse oracle\n      //(bet.finalPrice,ok) = myLighthouse.peekData();\n      return finalPrice;\n    }\n\n    /**\n    /*   Functions to handle user funding transactions\n    /*     TODO -- Move some logic here to offchain to save gas!!\n    **/ \n    /// WORKING :))\n    function userDeposit(address msgSender) external payable notPaused {\n      require( numAccounts < 5, \"Already reached max number of betters allowed. Try again later!\" );\n      uint256 amount = msg.value;\n      require( amount > 0, \"Error: Cannot deposit zero Ether\" );\n      \n      bool userExists = false;\n      /// Check if existing user. Take deposit and update user balance\n      for(uint i = 0; i < numAccounts; i++){\n        if( userAccounts[i] == msgSender){\n          userExists = true;\n          users[msgSender].balance = users[msgSender].balance.add(amount);\n          break;\n        }\n      }\n      /// Create user account for new user. Take deposit and update user balance\n      if(userExists == false){       \n        userAccounts[numAccounts] = msgSender; \n        users[msgSender] = User(amount, 0, false, BetChoice.NA, false);        \n        numAccounts = numAccounts.add(1);\n      }\n      emit LogUserDeposit(msgSender, amount);\n    }\n\n    /// NOT WORKING :(((\n    function userWithdraw(address payable msgSender) external notPaused {\n      require( users[msgSender].balance > 0, \"Error: Cannot withdraw, zero balance\" );\n\n      uint256 amount = users[msgSender].balance;\n      /// Change state before sending - to prevent re-entrancy attack!\n      users[msgSender].balance = 0;\n\n      (bool success, ) = msgSender.call.value(amount).gas(30000)(\"\");\n        /// New syntax below (0.6.4+), fallback function logs withdraw in a storage write, requires 20000 gas\n        ///   msgSender.call{gas: 20000, value: amount}(\"\");\n      require(success);\n \n      emit LogUserWithdraw(msgSender, amount);\n    }\n\n    /**\n     *   Functions to handle betting transactions\n    **/\n    /*  TODO -- Implement passing more bet settings through function call later -- \n      function createBet(string _underlying, uint256 _strikePrice, uint _endTime) public onlyOwner {\n      bet = Bet(_underlying, _strikePrice, block.timestamp, _endTime, 0, 0, 0, BetStatus.STARTED);\n    } */\n    /// WORKING :))\n    function createBet(uint256 _strikePrice) public onlyOwner notPaused {\n      bet.strikePrice = _strikePrice;\n      bet.createTime = block.timestamp;\n      bet.endTime = block.timestamp + 1 hours;\n      bet.status = BetStatus.STARTED;\n      bet.isLive = true;\n\n      emit LogCreateBet(msg.sender, _strikePrice);\n    }\n\n    /// WORKING :))\n    function userTakeBet(address msgSender, BetChoice _choice) external notPaused betIsLive {\n      uint256 currTime = block.timestamp;\n      require( currTime < bet.endTime, \"Error: Bet is already closed\" );\n      /// TODO -- Temporarily hard-coded user betting amount. To be changed later.\n      uint256 weiAmount = 1 ether;\n      require( users[msgSender].balance >= weiAmount, \"Error: Not sufficient fund in wallet\" );\n      require( !users[msgSender].hasBetted, \"Error: Already betted\" );\n\n      users[msgSender].hasBetted = true;\n      users[msgSender].balance = users[msgSender].balance.sub(weiAmount);\n      users[msgSender].betAmount = users[msgSender].betAmount.add(weiAmount);\n      users[msgSender].chosenBet = _choice;\n      bet.totalPot = bet.totalPot.add(users[msgSender].betAmount);\n      bet.betterCount = bet.betterCount.add(1);\n      if (_choice == BetChoice.Above) { bet.upCount = bet.upCount.add(1); }\n      else if (_choice == BetChoice.Below) { bet.downCount = bet.downCount.add(1); }\n\n      emit LogUserTakeBet(msgSender, _choice);\n    }\n\n    function closeBet() public onlyOwner notPaused betIsLive {\n      bet.status = BetStatus.CLOSED;\n\n      emit LogCloseBet(msg.sender);\n    }\n\n    function resolveBet() public onlyOwner notPaused betIsLive {\n      bet.status = BetStatus.RESOLVED;\n      bet.isLive = false;\n      setBetOutcome();\n      setBetPayout();\n\n      emit LogResolveBet(msg.sender, bet.strikePrice, finalPrice, bet.outcome);\n      emit LogSetBetPayout(msg.sender, bet.totalPot, bet.winnerCount);\n    } \n\n    function setBetOutcome() internal onlyOwner {\n      finalPrice = getFinalPriceFromOracle();\n\n      if (finalPrice >= bet.strikePrice){ bet.outcome = BetChoice.Above; } \n      else if (finalPrice < bet.strikePrice){ bet.outcome = BetChoice.Below; }\n    \n      for(uint i = 0; i < numAccounts; i++){  \n        if( users[userAccounts[i]].betAmount > 0 && users[userAccounts[i]].chosenBet == bet.outcome ){ \n          users[userAccounts[i]].hasWon = true;\n          bet.winnerCount = bet.winnerCount.add(1);\n        }\n        users[userAccounts[i]].betAmount = 0;\n      }\n    }  \n\n    /**  \n     *  TODO -- Implement bet payout logic (for now just split total pot amongst all winners equally)\n     *        Also need to implement fees deduction later\n    **/\n    function setBetPayout() internal onlyOwner { \n      uint256 payout = 0;\n      if (bet.winnerCount > 0) {\n        payout = bet.totalPot.div(bet.winnerCount);\n      }\n\n      for(uint i = 0; i < numAccounts; i++){\n        if( users[userAccounts[i]].hasWon ){ \n          users[userAccounts[i]].balance = users[userAccounts[i]].balance.add(payout);\n        }       \n      }\n    }\n\n    /// TODO -- Implement Bet Factory & preserve betting history. Then no need to reset.\n    function resetBet() public onlyOwner {    \n      //currPrice = 0;\n      finalPrice = 0;\n\n      //bet.betId = \"\";\n      //bet.underlying = \"\";\n      bet.strikePrice = 0;\n      bet.createTime = 0;\n      bet.endTime = 0;\n      bet.outcome = BetChoice.NA;\n      bet.totalPot = 0;\n      bet.betterCount = 0;\n      bet.upCount = 0;\n      bet.downCount = 0;\n      bet.winnerCount = 0;\n      bet.status = BetStatus.NOT_STARTED;\n      bet.isLive = false;\n\n      emit LogResetBet(msg.sender);\n    }\n\n}",
  "sourcePath": "/Users/yueyuyer/Bootcamp/FinalProject/contracts/SimpleBet.sol",
  "compiler": {
    "name": "solc",
    "version": "0.6.0+commit.26b70077.Emscripten.clang"
  },
  "schemaVersion": "3.3.2",
  "updatedAt": "2020-12-20T04:53:42.837Z",
  "networkType": "ethereum",
  "devdoc": {
    "author": "Yue WANG",
    "methods": {
      "owner()": {
        "details": "Returns the address of the current owner."
      },
      "renounceOwnership()": {
        "details": "Leaves the contract without owner. It will not be possible to call `onlyOwner` functions anymore. Can only be called by the current owner.     * NOTE: Renouncing ownership will leave the contract without an owner, thereby removing any functionality that is only available to the owner."
      },
      "transferOwnership(address)": {
        "details": "Transfers ownership of the contract to a new account (`newOwner`). Can only be called by the current owner."
      }
    },
    "title": "SimpleBet Smart Contract"
  },
  "userdoc": {
    "methods": {
      "createBet(uint256)": {
        "notice": "WORKING :))"
      },
      "getBetDetails()": {
        "notice": "State getter for React front event handling method calls"
      },
      "getBetStartEndTimes()": {
        "notice": "State getter for React front event handling method calls"
      },
      "getCurrPrice()": {
        "notice": "Removed view keyword for getCurrPrice and getFinalPrice because of Oracle call"
      },
      "getStrikePrice()": {
        "notice": "unction getUnderlying() public view returns(string memory) { return bet.underlying;     *"
      },
      "getUserAndBetStates(address)": {
        "notice": "State getter for React front event handling method calls"
      },
      "getUserDetails(address)": {
        "notice": "State getter for React front event handling method calls"
      },
      "kill()": {
        "notice": "Contruct Destructor - Mortal design pattern to destroy the contract n remove from blockchain }*"
      },
      "pauseBet()": {
        "notice": "Circuit Breakers - for Emergency use only!"
      },
      "resetBet()": {
        "notice": "TODO -- Implement Bet Factory & preserve betting history. Then no need to reset."
      },
      "userDeposit(address)": {
        "notice": "WORKING :))"
      },
      "userTakeBet(address,uint8)": {
        "notice": "WORKING :))"
      },
      "userWithdraw(address)": {
        "notice": "NOT WORKING :((("
      }
    },
    "notice": "This app is in very early alpha and not production ready*"
  }
}